:100000000C9489060C94B1060C94B1060C94B106BC
:100010000C94B1060C94B1060C94B1060C94B10684
:100020000C94B1060C94B1060C94580C0C94C70CAB
:100030000C94B1060C94B1060C94B1060C94B10664
:100040000C94B1060C94B1060C94B1060C94B10654
:100050000C94B1060C94B1060C94B1060C94F90EF4
:100060000C94B1060C94B1060C94B1060C94B10634
:100070000C94B1060C94B1060C94B1060C94B10624
:100080000C94430F0C94B1060C94B1060C94B10679
:100090000C94B1060C94B1060C94B1060C94B10604
:1000A0000C94B1060C94B1060C94B106000000004B
:1000B000003E5B4F5B3E3E6B4F6B3E1C3E7C3E1CEE
:1000C000183C7E3C181C577D571C1C5E7F5E1C0034
:1000D000183C1800FFE7C3E7FF0018241800FFE7EB
:1000E000DBE7FF30483A060E2629792926407F05AE
:1000F0000507407F05253F5A3CE73C5A7F3E1C1CC4
:1001000008081C1C3E7F14227F22145F5F005F5F83
:1001100006097F017F006689956A6060606060946F
:10012000A2FFA29408047E040810207E2010080874
:100130002A1C08081C2A08081E101010100C1E0C7F
:100140001E0C30383E3830060E3E0E060000000011
:100150000000005F00000007000700147F147F14F8
:10016000242A7F2A1223130864623649562050003D
:1001700008070300001C2241000041221C002A1C29
:100180007F1C2A08083E0808008070300008080814
:100190000808000060600020100804023E51494534
:1001A0003E00427F400072494949462141494D3352
:1001B0001814127F1027454545393C4A49493141B9
:1001C000211109073649494936464949291E000087
:1001D00014000000403400000008142241141414DC
:1001E0001414004122140802015909063E415D59C8
:1001F0004E7C1211127C7F494949363E41414122D1
:100200007F4141413E7F494949417F090909013EFA
:10021000414151737F0808087F00417F4100204021
:10022000413F017F081422417F404040407F021C33
:10023000027F7F0408107F3E4141413E7F0909094A
:10024000063E4151215E7F09192946264949493216
:1002500003017F01033F4040403F1F2040201F3FDC
:100260004038403F63140814630304780403615961
:10027000494D43007F4141410204081020004141A3
:10028000417F04020102044040404040000307084F
:100290000020545478407F2844443838444444284B
:1002A000384444287F385454541800087E090218F2
:1002B000A4A49C787F0804047800447D400020407A
:1002C000403D007F1028440000417F40007C0478BE
:1002D00004787C080404783844444438FC18242406
:1002E0001818242418FC7C08040408485454542486
:1002F00004043F44243C4040207C1C2040201C3C03
:100300004030403C44281028444C9090907C4464F9
:10031000544C44000836410000007700000041368C
:10032000080002010204023C2623263C1EA1A16112
:10033000123A4040207A3854545559215555794144
:100340002154547841215554784020545579400C1B
:100350001E527212395555555939545454593955FC
:100360005454580000457C410002457D420001453F
:100370007C40F0292429F0F0282528F07C545545AC
:10038000002054547C547C0A097F4932494949323F
:100390003248484832324A4848303A4141217A3A54
:1003A00042402078009DA0A07D39444444393D401E
:1003B00040403D3C24FF2424487E4943662B2FFCCB
:1003C0002F2BFF0929F620C0887E09032054547979
:1003D000410000447D413048484A32384040227A4A
:1003E000007A0A0A727D0D19317D2629292F2826C7
:1003F0002929292630484D402038080808080808CF
:100400000808382F10C8ACBA2F102834FA00007B27
:10041000000008142A142222142A1408950022002D
:1004200095AA005500AAAA55AA55AA000000FF00E7
:10043000101010FF00141414FF001010FF00FF1024
:1004400010F010F0141414FC001414F700FF000056
:10045000FF00FF1414F404FC141417101F10101FD5
:10046000101F1414141F00101010F0000000001FC3
:10047000101010101F10101010F010000000FF10CE
:100480001010101010101010FF10000000FF1400CA
:1004900000FF00FF00001F10170000FC04F41414FC
:1004A0001710171414F404F40000FF00F7141414C8
:1004B00014141414F700F7141414171410101F1048
:1004C0001F141414F4141010F010F000001F101F6B
:1004D0000000001F14000000FC140000F010F010D9
:1004E00010FF10FF141414FF141010101F00000050
:1004F00000F010FFFFFFFFFFF0F0F0F0F0FFFFFF54
:100500000000000000FFFF0F0F0F0F0F38444438AA
:10051000447C2A2A3E147E02020606027E027E02E5
:1005200063554941633844443C04407E201E200604
:10053000027E020299A5E7A5991C2A492A1C4C7241
:1005400001724C304A4D4D303048784830BC625AC8
:10055000463D3E494949007E0101017E2A2A2A2A58
:100560002A44445F444440514A444040444A514034
:100570000000FF0103E080FF000008086B6B0836F5
:1005800012362436060F090F060000181800000066
:100590001010003040FF0101001F01011E00191D55
:1005A0001712003C3C3C3C0000000000F0F89C8E20
:1005B0008783878E9CF8F00000FEFF03030303038C
:1005C000070EFCF80000FEFF0303030303070EFC05
:1005D000F80000FFFF00000000000000FFFF000027
:1005E000FEFF8383838383C7EE7C380000F8FC0E14
:1005F00007030303070EFCF800003F7FE0C0808084
:10060000C0E07F3FFFFF01010101010101FFFF0089
:1006100000FFFF0C0C0C0C1C3E77E3C100007FFFB9
:10062000C0C0C0C0C0E0703F1F00001F3F70E0C0EE
:10063000C0C0E0703F1F00007FFFC1C1C1C1C1E366
:10064000773E1C00001F3F70E0C0C0C0E0703F1F3D
:10065000000000000001FFFF01000000D5F08D1434
:10066000A1C881CFD9F1AF20003F0310010000885D
:10067000003F031001E40288009302880000008814
:1006800000EE0188004B02880000008800E4028828
:10069000003F031001000088003F038800000010A5
:1006A0000193022102000010013F031001E40288BF
:1006B000003F03880000008800DC0321020000885E
:1006C00000700388003F039901E40210013F038892
:1006D00000E40299016E021001EE018800700388A7
:1006E000000000880070039901000088006E02106D
:1006F00001EE0188006E02100170031001000088F5
:1007000000A403880070031001E40288006E0299BF
:1007100001DC03880000008800DC0321020000885F
:100720000070031001000088003F031001000088E2
:1007300000A4031001000088009302210200008839
:1007400000E402880093021001000099015504A9F9
:1007500002000088007003100100008800DC031014
:1007600001000088005504A9020000880070039968
:100770000155049901DC0310013F038800DC0310DC
:1007800001000088003F031001DC03880093021081
:1007900001EE018800DC03100155048800DC031021
:1007A00001000088003F03210200001001E40288DC
:1007B00000000088003F038800A4031001E40288C1
:1007C000003F0399015504880000001001E40288ED
:1007D00000000088003F038800A4038800550488B7
:1007E00000E40288003F0310010000880055041057
:1007F0000100008800DC03A90200008800700321CA
:1008000002000010013F03210200001001E4022158
:1008100002018053636F72653A000F0F0000800081
:10082000000086C3CFDEC3C2C0800002031F3E7833
:100830007F7F79797F7F7F7F3F1F2D088800750537
:100840008800270588000080270588007505880036
:100850002D0888000080507265737320616E7920C6
:100860006B65790053636F72653A2000596F75208C
:100870006D61646520697420686F6D652100507238
:1008800065737320616E79206B65790053636F72B5
:10089000653A20004E69676874792D6E69676874DF
:1008A0002100804000000000000000000000000067
:1008B0000000000000000000000000000000000038
:1008C0000000000000000000000000000000000028
:1008D0000000000000000000000000000000000018
:1008E0000000000000000000000000000000000008
:1008F00000000000000000000000000000000000F8
:1009000000000000000000000000000000000000E7
:1009100000000000000000000000000000000000D7
:1009200000000000000000000000000000000000C7
:1009300000000000C020A0E0E0E0E0C000000000F7
:1009400000000000000000808080808000000080A7
:100950004040C0C080000000808080808000000097
:100960000000000000000000000000000000000087
:100970000000000000000000000000000000000077
:100980000000000000000000000000000000000067
:100990000000000000000000000000000000000057
:1009A0000000000000000000000000000000000047
:1009B00000000000FFFFFFFFFFFFFFFF000000003F
:1009C000000000000000FFFCFEFFFFFFFF00001F13
:1009D0003E3F3F3F1F0000FFFCFEFFFFFFFF000008
:1009E0000000000000000000000000000000000007
:1009F00000000000000000000000000000000000F7
:100A000000000000000000000000000000000000E6
:100A100000000000000000000000000000000000D6
:100A200000000000000000000000000000000000C6
:100A3000000000000F1F3F3F3F3F3F3F3E3E3E3E16
:100A40003E3E3E1C00001F3F3F3F3F3F1F00000057
:100A5000000000000000001F3F3F3F3F3F3F3E3E81
:100A60003E3E3E1C000000000000000000000000B0
:100A70000000000000000000000000000000000076
:100A80000000000000000000000000000000000066
:100A90000000000000000000000000000000000056
:100AA0000000000000000000000000000000000046
:100AB0000000000000F0C8E8E8F8F8F8F8F87878E6
:100AC00078F8F8F0E00000C020A0A0E0E0E0E0E06E
:100AD000E0E0E0E0C00000C020A0E0E0E0C00000F6
:100AE000000000000000C020A0A0E0E0E0C0000086
:100AF000C0E0E0E0C00000000000000000C060E0D6
:100B0000C060400000000000C0A0A0E0E0E0E0E025
:100B1000E0E0E0E0C0800000000000000000000015
:100B200000000000000000000000000000000000C5
:100B30000000000000FFFFFFFFFFFFFFFFFFDF9E41
:100B40009EFFFFFFF90000FFFFFFFFFFFFFFFFBB5E
:100B5000BBBBBBBB110000FFFFFFFFFFFFFF80809F
:100B6000808080000000FFFFFFFFFFFFFFFF80800D
:100B7000FFFFFFFFFF00004060F0C000E0F03839E9
:100B8000FBF8F8F8F0E00000FFFFFFFFFFFFFF3D7C
:100B90003939FFFFFFFFFF000000000000000000E8
:100BA0000000000000000000000000000000000045
:100BB0000000000000070F0F0F0F0F0F0F0F0F0F98
:100BC0000F0F0F07030000070F0F0F0F0F0F0F0F6F
:100BD0000F0F0F0F070000070F0F0F0F0F0F0F0F53
:100BE0000F0F0F070000070F0F0F0F0F0F0F0F0F43
:100BF0000F0F0F0F070000000003070F0F0F0F0F5D
:100C00000F0F0F0F07030000070F0F0F0F0F070045
:100C10000000070F0F0F0700000000000000000099
:100C200000000000000000000000000000000000C4
:100C300000000000000000000000000000000000B4
:100C400000000000000000000000000000000000A4
:100C50000000000000000000000000000000000094
:100C60000000000000000000000000000000000084
:100C70000000000000000000000000000000000074
:100C80000000000000000000000000000000000064
:100C90000000000000000000000000000000000054
:100CA00000000000080B000202020000090400001E
:100CB00001020200000524001001052401010104C5
:100CC00024020605240600010705810310004009DF
:100CD000040100020A0000000705020240000007AC
:100CE0000583024000000403090412010002EF0220
:100CF0000140412336000001010203014172647585
:100D0000696E6F204C4C430041726475626F7900CC
:100D1000D70F11241FBECFEFDAE0DEBFCDBF11E049
:100D2000A0E0B1E0E4E9FBE202C005900D92AC3333
:100D3000B107D9F725E0ACE3B1E001C01D92A33FB4
:100D4000B207E1F716E0C9E8D6E004C02197FE013A
:100D50000E94C215C838D107C9F70E9404100C942C
:100D6000C8150C94000080914A0108954F925F923B
:100D70006F927F928F929F92AF92BF92CF92DF92AB
:100D8000EF92FF920F931F93CF93DF93FB01E00F3E
:100D9000F11D1E161F060CF08FC0603471050CF09B
:100DA0008BC0DB0177FF04C0AA27BB27A61BB70BAC
:100DB000A770BB27EB0177FD2796E3E0D595C79594
:100DC000EA95E1F777FF07C0219768E070E0FB0143
:100DD000EA1BFB0BDF01E02EE694E694E694F12C8F
:100DE000077019F0FFEFEF1AFF0A30E08A01AE0139
:100DF0005695542F442757954795480F591F4157EB
:100E00005E4FBE01E0E8F0E05F01A81AB90A88E091
:100E100090E03C016A1A7B0A6F3F8FEF78070CF471
:100E20003BC090E080E04A01E0E88E0E911C6F3FED
:100E3000760709F452C0FC01E00FF11FE4916A014A
:100E4000C80ED91EF0E02F010A2E01C0440C0A94EE
:100E5000EAF7F6015080452840821097B1F06730DC
:100E6000710599F0F801E80FF91FE4916401C80ECB
:100E7000D91EF0E02F01062C02C0559447940A9425
:100E8000E2F7F601508045284082019682179307C9
:100E90001CF4A816B90659F66F5F7F4F020F131F97
:100EA00040585F4FCB018C1B9D0B8E159F0524F482
:100EB0006830710509F0B0CFDF91CF911F910F918C
:100EC000FF90EF90DF90CF90BF90AF909F908F906A
:100ED0007F906F905F904F900895109709F0C2CF68
:100EE000D4CFEFE8F1E0A0E0B8E000800EBC8111C3
:100EF000012C1197A0FDFDCF0192B9F70DB4089513
:100F0000FC0180918E01882311F13FB7F89482E0B3
:100F10008093E9002091F200822F90E018161906C4
:100F200014F481E090E0882339F0289844E6409357
:100F30008D014091F1004083222339F02091F2008D
:100F4000211103C02BE62093E8003FBF08958FEFE7
:100F50009FEF08952FB7F89483E08093E900909174
:100F6000E800892F807295FF04C09091F20080E420
:100F7000891B2FBF08958091850181110DC082E0EA
:100F80008093810184E08093820110928401109209
:100F9000830181E08093850181E891E00895CF93FA
:100FA000DF931F92CDB7DEB76983DC01ED91FC9131
:100FB0000280F381E02D41E050E0BE016F5F7F4F82
:100FC00009950F90DF91CF91089583E08093E90018
:100FD0008091F200882319F08AE38093E800089555
:100FE0000E94AA0790E00895CF93DF931F92CDB798
:100FF000DEB7FC018485958597FD08C02FEF3FEF94
:10100000358724870F90DF91CF910895CE01019607
:101010000E948007019719F4898190E0F3CF8FEF48
:101020009FEFF0CF0F931F93CF93DF931F92CDB716
:10103000DEB78C01FC018485958597FF0BC0CE013E
:1010400001960E948007019771F4898190E0F80170
:1010500095878487F801848595850F90DF91CF91DE
:101060001F910F9108958FEF9FEFF1CFFC018485C1
:10107000958597FD0BC09FB7F89482E08093E900B7
:101080008091F2009FBF90E0019608959FB7F89479
:1010900082E08093E9008091F2009FBF90E0089584
:1010A00040917B0150917C012091790130917A012E
:1010B00042175307B4F49091E8009570E1F39091D2
:1010C000E80092FD19C08093F10080917B0190911E
:1010D0007C0101968F739927892B19F48EEF8093E9
:1010E000E80080917B0190917C01019690937C01B6
:1010F00080937B0181E0089580E00895DF92EF9274
:10110000FF920F931F93CF93DF93D82E8A01EB01A9
:101110007B01E40EF51ECE15DF0559F0D7FE12C097
:10112000FE0184910E94500821968111F4CF0FEFA7
:101130001FEFC801DF91CF911F910F91FF90EF90AA
:10114000DF9008958881EECF0F931F93CF93DF93A5
:101150001F92CDB7DEB782E0898342E450E064EAB3
:101160007CE080E80E947E080E94BB07DC011296AA
:101170000D911C910115110589F0D801ED91FC919B
:101180000280F381E02DBE016F5F7F4FC80109959A
:1011900097FD04C0F80100851185ECCF89810F907F
:1011A000DF91CF911F910F910895615030F0209100
:1011B000F100FC0120830196F8CF289884E6809303
:1011C0008D0108953FB7F894809175019091760153
:1011D000A0917701B091780126B5A89B05C02F3F5B
:1011E00019F00196A11DB11D3FBFBA2FA92F982F4D
:1011F0008827BC01CD01620F711D811D911D42E048
:10120000660F771F881F991F4A95D1F708958F920F
:101210009F92AF92BF92CF92DF92EF92FF926B01BB
:101220007C010E94E2084B015C01C114D104E1047D
:10123000F104B9F00E94E208681979098A099B094A
:10124000683E73408105910580F321E0C21AD10800
:10125000E108F10888EE880E83E0981EA11CB11CFD
:10126000E4CFFF90EF90DF90CF90BF90AF909F9032
:101270008F9008958F929F92AF92BF92CF92DF92FC
:10128000EF92FF920F931F93CF93DF936C017B013B
:101290008A0180911101882309F45CC080918E013C
:1012A000882309F457C08091800180FF05C0809198
:1012B000E00082608093E000E801B12C8AEFA82E64
:1012C00093E0892E2AE3922E209711F4BB20D9F1C6
:1012D0000E94AA0781110AC0AA94AA20D9F161E04C
:1012E00070E080E090E00E940709EECF8C171D06A9
:1012F00011F00CF08C2F9FB7F8948092E9002091A8
:10130000E80025FD02C09FBFDFCF282F30E0C21BC1
:10131000D30BF701815020F041914093F100FACFB7
:10132000E20EF31EBB2021F09092E800B12CEBCF2F
:101330008091E80085FDE7CF9092E800BB24B3944C
:10134000209709F3F3CF5D9884E680937F01101610
:1013500011063CF081E090E0F6019383828310E077
:1013600000E0C801DF91CF911F910F91FF90EF90A6
:10137000DF90CF90BF90AF909F908F900895AF92E5
:10138000BF92CF92DF92EF92FF920F931F93CF9372
:10139000DF936C017B018B01040F151FEB015E01D4
:1013A000AE18BF08C017D10759F06991D601ED9169
:1013B000FC910190F081E02DC6010995892B79F708
:1013C000C501DF91CF911F910F91FF90EF90DF90BA
:1013D000CF90BF90AF90089520914301E0914101DB
:1013E000F0914201CF010296909342018093410116
:1013F000222319F085919491089580819181089517
:10140000E1E7F0E080818D7F808310929100469823
:101410004798109240010895CF92DF92EF92FF9289
:10142000CF93DF930E94EC09811520E8920741F4E5
:10143000DF91CF91FF90EF90DF90CF900C94000A56
:1014400021E020934001813020E8920751F48091FF
:101450003E0190913F0190934201809341010E948F
:10146000EC0997FD05C020913D01222309F45BC0E2
:1014700020913C01211157C021E020934401EC014F
:10148000DF77209709F052C081E0809345014698AC
:101490003FE9C32E3FE0D32EE12CF12CCAEFD0E080
:1014A000E091ED05F091EE050995811103C081E011
:1014B0008093450180914401882329F08091450162
:1014C000882309F446C047980E94EC09009709F464
:1014D00044C09C01DE010E949315DC01CB0129E090
:1014E000B595A795979587952A95D1F71092900075
:1014F0002AE020939100D0929900C09298008093A6
:10150000460190934701A0934801B093490180910F
:101510007100826080937100DF91CF91FF90EF9016
:10152000DF90CF90089510924401A9CF9E0150E022
:1015300040E060E472E48FE090E00E943F156901B2
:101540007A0181E0C81AD108E108F108109245013A
:10155000A7CF4699B8CF479AB7CF8FEF9FEFDC015F
:10156000C5CF9C01E1E7F0E090819D7F908381E011
:1015700080934301309342012093410130933F0116
:1015800020933E010C940C0A2D9A0895BC0190E022
:1015900080E00C9407098FB18095807F669B8860FE
:1015A0001C9B846008953E9A3F9A81E080934A0193
:1015B000089520E191E061FD94E060FD990F62FDE6
:1015C0009295687F269FD0011124A80FA157BE4F86
:1015D0008C9140FF03C0892B8C93089590958923AB
:1015E000FBCFAF92BF92CF92DF92EF92FF920F9319
:1015F0001F93CF93DF936B01EC015C01A40EB11C30
:101600007B01E20EF11CCA15DB05E4F48601D7FE6E
:1016100002C010E000E0C70121E4E216F10414F07A
:1016200080E490E0081719075CF4C038D10528F46D
:1016300041E0B801CE010E94D90A0F5F1F4FEBCFE6
:101640002196E1CFDF91CF911F910F91FF90EF9005
:10165000DF90CF90BF90AF9008958F929F92AF92FE
:10166000BF92CF92DF92EF92FF920F931F93CF938F
:10167000DF936D3089F0C0904F01D09050016A30F7
:10168000D1F4109252011092510188E0C80ED11C81
:10169000D0925001C0924F0181E090E0DF91CF9154
:1016A0001F910F91FF90EF90DF90CF90BF90AF9080
:1016B0009F908F9008950091510110915201E5E0A3
:1016C0006E9FE0011124C455DF4F5801F12CF5E065
:1016D000E12CFF1629F0CE010196FE01E490EC0109
:1016E000912C812CF0E8AF16B10458F4B601680DC6
:1016F000791D6034710528F44E2D4170C5010E949A
:10170000D90AE6948FEF881A980AE8E08E169104B9
:1017100049F7F394FFEFAF1ABF0A86E0F812D7CF6C
:101720000A5F1F4F1093520100935101B5CF0F93E1
:101730001F93CF93DF938C01D0E0C0E0F801EC0F52
:10174000FD1F6491662341F08FEE95E00E942D0B02
:10175000892B11F02196F2CFCE01DF91CF911F910D
:101760000F910895089590E080E008958F929F92E0
:10177000AF92BF920F931F93CF93DF93CDB7DEB796
:10178000A1970FB6F894DEBF0FBECDBF19A24230AD
:1017900008F44AE08E010F5D1F4F842E912CB12C6E
:1017A000A12CA50194010E947115E62FB901CA016F
:1017B000EA3044F5E05DD801EE938D01232B242B14
:1017C000252B79F790E080E0109769F0FD010190FA
:1017D0000020E9F73197AF014A1B5B0BBD018FEE8B
:1017E00095E00E94BF09A1960FB6F894DEBF0FBE28
:1017F000CDBFDF91CF911F910F91BF90AF909F9080
:101800008F900895E95CD7CFBC01990F880B990B95
:101810004AE00C94B60BCF92DF92EF92FF920F93B7
:101820001F93CF93DF9388E190E09093050180931D
:10183000040110926E0110926D0184E893E0909380
:1018400002018093010110925601109255011092ED
:1018500054011092530187E080930301C7E5D1E062
:1018600000E810E089E1C82ED12CE12CF12C19837D
:1018700008830E94D114A70196010E943F15685F5A
:101880007F4F8F4F9F4F7B836A831C82085D1F4F62
:101890002596003281E0180751F7DF91CF911F9113
:1018A0000F91FF90EF90DF90CF9008950C94291541
:1018B0001F920F920FB60F9211248F939F938091D6
:1018C000E1009091E100937F9093E10083FF0FC0CE
:1018D0001092E90091E09093EB001092EC0092E3FB
:1018E0009093ED0010928E0198E09093F00082FFAB
:1018F00022C093E09093E9009091F200992319F0AF
:101900009AE39093E80090917F01992341F09091A0
:101910007F01915090937F01911101C05D9A909148
:101920008D01992341F090918D01915090938D01FB
:10193000911101C0289A84FF18C08091E2008E7E28
:1019400081608093E2008091E1008F7E8093E100CE
:10195000809180018E7E8061809380019F918F9124
:101960000F900FBE0F901F90189580FFF7CF8091BA
:10197000E2008E7E80618093E2008091E1008E7EA5
:101980008093E100809180018E7E8160E5CF1F927F
:101990000F920FB60F921124CF92DF92EF92FF9227
:1019A0000F931F932F933F934F935F936F937F9367
:1019B0008F939F93AF93BF93EF93FF93CF93DF9357
:1019C000CDB7DEB76C97DEBFCDBF1092E900809136
:1019D000E80083FF25C068E0CE0145960E94D50847
:1019E00082EF8093E8008D8987FF39C09091E800ED
:1019F00090FFFCCF982F907609F034C19E894F89D3
:101A0000588D2F89F88C911131C0803861F5809103
:101A10007E018093F1001092F1008EEF8093E80038
:101A20006C960FB6F894DEBF0FBECDBFDF91CF919D
:101A3000FF91EF91BF91AF919F918F917F916F91A6
:101A40005F914F913F912F911F910F91FF90EF90D8
:101A5000DF90CF900F900FBE0F901F9018959EEFC4
:101A60009093E800C7CF1092F100D5CF913059F490
:101A70008111D3CF4130510581F680917E018D7F58
:101A800080937E01CACF933049F48111C6CF413093
:101A9000510519F680917E018260F2CF953041F4B4
:101AA0008091E80080FFFCCF20682093E300B5CF51
:101AB000963009F0A9C00B8D1C8D22E01092E90030
:101AC00010927C0110927B01F2122EC010927A01CA
:101AD000109279010E94A4081F8299E09983FA82EA
:101AE00091E09E8390EA98879AEF998720917B01F5
:101AF00030917C01275F3F4F3C832B838D83109275
:101B0000E90010927C0110927B0110937A010093FE
:101B1000790149E050E0BE016F5F7F4F80E00E9495
:101B20007E080E94A40879CF10937A01009379016E
:101B30000E94BB07DC0112960D911C910115110545
:101B400009F451C1D801ED91FC910480F581E02D9B
:101B5000BE016B5E7F4FC8010995009709F03EC139
:101B6000F80100851185EACFF3E0FF120EC08F89DE
:101B7000882309F440C0823061F440E867E088E0DF
:101B80009DE00E94A40F811148CF81E28093EB0079
:101B900047CF813029F440E86BE08CEF9CE0F1CF37
:101BA000833099F70E94BB07DC011296ED90FC9000
:101BB0008E010F5F1F4F6801E114F10479F0D70126
:101BC000ED91FC910680F781E02DB801C7010995E0
:101BD000080F111DF701E084F184EECFD8011C92AB
:101BE000F60101900020E9F73197BF016C197D09DA
:101BF00040E0C601C6CF66EE7CE0FB01449150E0B8
:101C000080E80E947E0809CF973009F4BECF983053
:101C100021F481E08093F10000CF993009F0FDCEEE
:101C2000837009F0B2CFE7E1F1E081E031E096E3C3
:101C30002191222371F08093E9003093EB00DF01C2
:101C400011972C912093EC009093ED008F5F8730DB
:101C500079F78EE78093EA001092EA008F898093EB
:101C60008E01DBCE8B8D9C8D1092E90010927C0151
:101C700010927B0190937A0180937901898D811173
:101C800092C08E899D89913A49F4813209F07DCFC5
:101C900047E050E06AE071E080E0B3CF913209F0B4
:101CA00074CF833269F48F89988DB0E0A0E080937F
:101CB000060190930701A0930801B0930901ADCEEE
:101CC000803269F48091E80082FFFCCF67E08AE00F
:101CD00091E00E94D5088BEF8093E8009ECE82327F
:101CE00009F09BCE8F8980931101EEEFFFE785917C
:101CF00094918B3F9C4D51F1E0E0F8E080910A0116
:101D000090910B01A0910C01B0910D01803B94408A
:101D1000A105B105F1F48091110180FD1AC0EE3FDB
:101D20008AE0F80789F587E797E7918380838091B8
:101D3000600080937D0188E19BE00FB6F894A89540
:101D4000809360000FBE9093600067CEEEEFFAE0E4
:101D5000D5CF808191818737974709F05ECEA895CE
:101D60008091600088618093600080917D01809304
:101D70006000EE3F2AE0F20789F08091FE0A909120
:101D8000FF0A9183808349CE8081918187379807AC
:101D900051F29093FF0A8093FE0AC5CF1092FF0A7A
:101DA0001092FE0A3ACE0E94BB07DC0112960D91FA
:101DB0001C910115110509F4E8CED801ED91FC91B3
:101DC0000190F081E02DBE016B5E7F4FC801099547
:101DD000811123CEF80100851185EBCF1816190665
:101DE0000CF41BCED2CEF1E0FF12BECE6AEE7CE048
:101DF00004CF1F920F920FB60F9211242F933F938F
:101E00008F939F93AF93BF938091710190917201D3
:101E1000A0917301B09174013091700123E0230F00
:101E20002D3758F50196A11DB11D209370018093A7
:101E3000710190937201A0937301B093740180912A
:101E4000750190917601A0917701B091780101968A
:101E5000A11DB11D8093750190937601A093770128
:101E6000B0937801BF91AF919F918F913F912F9146
:101E70000F900FBE0F901F90189526E8230F029623
:101E8000A11DB11DD2CF1F920F920FB60F92112438
:101E90002F933F934F935F936F937F938F939F9372
:101EA000AF93BF93EF93FF938091460190914701C9
:101EB000A0914801B0914901892B8A2B8B2B09F401
:101EC00040C08091450181110BC088B190E4892701
:101ED00088B980914401882319F088B1805888B965
:101EE0008091460190914701A0914801B09149012C
:101EF000181619061A061B069CF48091460190914B
:101F00004701A0914801B09149010197A109B10988
:101F10008093460190934701A0934801B0934901F3
:101F2000FF91EF91BF91AF919F918F917F916F91B1
:101F30005F914F913F912F910F900FBE0F901F9087
:101F400018950E940C0AECCFEF92FF920F931F930B
:101F5000CF93DF93F82E192FE62E042F81E0860F02
:101F6000880F0E94500883E00E945008CF2DD12F87
:101F7000EC0EFD2EF11CCE15DF05B9F007FF13C0E6
:101F8000FE0184910E945008182F80E00E945008A2
:101F9000812321968111EFCFDF91CF911F910F9176
:101FA000FF90EF9008958881EDCF81E0F5CFEFE8C5
:101FB000F5E01382128288EE93E0A0E0B0E0848323
:101FC0009583A683B78381E291E0918380838FEF2D
:101FD0009FEF95878487EFEEF5E01382128283E30B
:101FE00091E09183808383EB96E09093EE0580935C
:101FF000ED0580E090E89093EC058093EB05469822
:102000003E9A47983F9A0895789484B5826084BD3B
:1020100084B5816084BD85B5826085BD85B58160EC
:1020200085BD80916E00816080936E00109281006A
:102030008091810082608093810080918100816025
:1020400080938100809180008160809380008091E6
:1020500091008260809391008091910081608093D3
:102060009100809190008160809390008091C100E8
:1020700084608093C1008091C10082608093C10020
:102080008091C10081608093C1008091C300816014
:102090008093C3008091C00082608093C0008091D3
:1020A000C20081608093C20080917A008460809336
:1020B0007A0080917A00826080937A0080917A0021
:1020C000816080937A0080917A00806880937A00A2
:1020D00010928E0110927E01109280018091D700A3
:1020E00081608093D70080EA8093D80089B58061B1
:1020F00089BD89B5826089BD09B400FEFDCF61E06C
:1021000070E080E090E00E9407098091D8008F7C09
:1021100080618093D8008091E000807F8093E00010
:102120008091E1008E7E8093E1008DE08093E2005B
:10213000559A209A81EC80937C0085B1806F85B997
:1021400084B1877E84B984B1876E84B95E9A5F98C2
:102150008AB1806D8AB9769A6E9881B3806F81BB9F
:10216000899880B38D7080BB80E58CBD81E08DBD8A
:1021700085E090E00E94C60A5F9A85E090E00E94A8
:10218000C60A5E985C98ECE5F6E084918EBD00008E
:102190000DB407FEFDCF319606E0E936F007A9F74A
:1021A0005C9A81E8809364008091650081608093EF
:1021B000650080E00E9471070E94CB0A87FF15C06E
:1021C0005C9885EA8EBD00000DB407FEFDCF5C9AD9
:1021D0002E982F982D9880916400806280936400DF
:1021E00081E083BF889513BEFCCF0E94CB0A82FF9B
:1021F00048C02D980E94CB0A84788438E1F40E946C
:10220000C40A88EC90E00E94C60A2F9882E090E011
:102210000E9429158F3F29F06FEF82E090E00E9425
:10222000311584EF91E00E94C60A2F9A0E94CB0AD2
:1022300084788438D9F30E94CB0A84718431E1F424
:102240000E94C40A88EC90E00E94C60A2E9882E0A0
:1022500090E00E942915882329F060E082E090E058
:102260000E94311584EF91E00E94C60A2E9A0E94C6
:10227000CB0A84718431D9F388EC90E00E94C60ABD
:10228000B4CF0E94C40A82E090E00E94560C8823DA
:1022900009F482C00E94D30A81E090E00E94560CAB
:1022A000182F147081FF0CC011112E98C1EFDFEFB1
:1022B0000E94CB0A86FF75C02E9A2F9A0E94C40AEC
:1022C00082E390E00E94C60A0E94CB0A8111F8CFF7
:1022D00080E1809300010E94D30A809164008E7F88
:1022E0008093640080917A00806480937A0080916A
:1022F0007A0086FDFCCFC0917800D09179000E94D1
:10230000E208AB01BC01CE01B0E0A0E0DC019927FE
:1023100088278C019D01040F151F261F371FC90137
:10232000B80120916400216020936400611571055B
:102330008105910511F00E9420150E940B0C10924E
:102340006F010E94000A89E696E00E94B10A8EE2BF
:10235000682E712C94E8292E93E0392E412C512CB3
:1023600026E1E22EF12C2FB7F89480917101909123
:102370007201A0917301B09174012FBF20914D01A2
:10238000222309F468C010924D0100E010E0012BF7
:1023900051F30E940000E7CF10924A013E983F9807
:1023A0007BCF112329F0C430D10511F42E9A2F9838
:1023B00081E00E94710700E128E54CEA55E0BE018A
:1023C00084E190E00E94B60680E00E9471078FE0F1
:1023D00090E00E94C60A2196C931D10509F068CF64
:1023E000112311F02F9A2D9880E991E00E94C60ADE
:1023F0000E94C40A81E090E00E94560C80FF60CFEA
:102400008AE090E00E94560C9FEF980F9E3F08F0E4
:1024100057CF22E330E0309352012093510128E35B
:1024200030E03093500120934F01CBE0D0E0682F93
:102430008FEE95E00E942D0BCE010E94560C219646
:10244000C131D105A1F780E00E94710788EE93E0C9
:102450000E94C60A35CF20914E01182F121B212F42
:1024600030910001131748F42F5F231708F08DCF28
:1024700081E083BF889513BE88CFC1E0C0934D0132
:1024800080934E0180914B0190914C010196909365
:102490004C0180934B0180916C0180936B010E94F1
:1024A000CB0A80936C0120916F01211118C00E940A
:1024B000CB0A882331F00E940B0CC0936F010E945D
:1024C000000A00E420E842EA58E070E060E090E0B2
:1024D00080E00E94B60681E00E94710756CF21304D
:1024E00009F0AFC10E94CB0A87FF09C080910401A7
:1024F00090910501029790930501809304010E9439
:10250000CB0A84FF09C080910401909105010296D5
:10251000909305018093040180910401909105013D
:1025200097FF04C0109205011092040180910401EC
:1025300090910501C29734F021E330E0309305011A
:1025400020930401209157013091580110915C01B2
:10255000D0915D01C0916101F0916201E09166014D
:102560004091670180915501909156010196909399
:10257000560180935501843B910558F080910301E9
:102580001092560110925501863118F48F5F809396
:102590000301509103018091530190915401850FE3
:1025A000911D6AE070E00E94AE156B01909354019A
:1025B000809353016115710509F474C08091010184
:1025C000909102016817790708F0D5C0861B970B18
:1025D0009093020180930101812F9D2F8217930711
:1025E0000CF4C9012C2F3F2F281739070CF49C013C
:1025F0000E2F142F021713070CF48901C7E5D1E041
:10260000BB24B394888199818C199D09998388830F
:102610002C81211110C00A9774F4BC8280916D0145
:1026200090916E01019690936E0180936D0188E404
:1026300098E00E94B10A88819981883F9F4FACF44D
:10264000085D1F4F198308830E94D11429E130E0EF
:1026500040E050E00E943F15685F7F4F8F4F9F4FD3
:102660007B836A831C8208811981888199810B97F9
:10267000469708F085C08A819B81209104013091A2
:102680000501281739072CF00996821793070CF0DB
:1026900077C082E080936F010E94000A8AE398E08D
:1026A0000E94B10AC7E5D1E018E22A8148E070E053
:1026B00060E0888199810E94F10A6A817B81212FE3
:1026C000261B685E7F4F48E0888199810E94F10A4D
:1026D000259691E0CB36D90741F7609104017091BE
:1026E00005010FE02FE04CE158E082E190E00E940C
:1026F000B6061092520110925101109250011092A0
:102700004F0183E198E00E94970B60916D017091F9
:102710006E0190E080E04AE00E94B60B0EE410E00B
:1027200010935201009351011092500110924F01E9
:1027300080910301CAE06C2F0E94A21590E00E94D4
:10274000040C6EE28FEE95E00E942D0B8091030148
:102750006C2F0E94A215892F90E00E94040CEDE2DC
:10276000F5E0DF0191E69150F9F08D91ED012197AF
:1027700084608883F8CF10920201109201012CCF5F
:1027800025968BE691E08C179D0709F03BCF809151
:10279000010190910201892B09F084CF83E080939D
:1027A0006F0188E498E07CCF91E6915031F08191FF
:1027B000DF01119780688C93F8CFCAE3D0E041E045
:1027C000BE018EE190E00E94D90A2196C034D10565
:1027D000B1F7CAE3D0E041E0BE018DE790E00E948E
:1027E000D90A2196C034D105B1F720910101309169
:1027F0000201AEE5B0E00E949315A20191010E9492
:102800007115422F24E06BE370E08FE190E00E94AD
:10281000F10A80916F018250823008F05CCE809185
:102820006B018C7F09F057CE80916C018C7F09F48D
:1028300052CE0E940B0C81E080936F010E94000A2F
:102840004ACE80906D0190906E01B12CA12C223067
:1028500071F5F0925201E092510124E130E03093A1
:10286000500120934F0184E998E00E94970BF09269
:102870005201E092510180E290E0909350018093E8
:102880004F018CE898E00E94970B4AE0C501B40123
:102890000E94B60BF0925201E092510170925001E9
:1028A00060924F018EE798E00E94970BB2CF02E151
:1028B00010E0109352010093510124E130E0309375
:1028C000500120934F018CE698E00E94970BF09204
:1028D0005201E092510180E290E090935001809388
:1028E0004F0184E698E00E94970B4AE0C501B401CD
:1028F0000E94B60BF0925201E09251017092500189
:1029000060924F0186E598E0CFCF8F929F92AF9271
:10291000BF92CF92DF92EF92FF92CF93DF93EC01C1
:10292000688179818A819B81611571058105910595
:1029300021F464E279ED8BE597E02DE133EF41E09E
:1029400050E00E943F1549015A019B01AC01A7EAE2
:10295000B1E40E945E156B017C01ACEEB4EFA50101
:1029600094010E946C15C60ED71EE81EF91EF7FED4
:1029700006C081E0C81AD108E10880E8F80AC882D8
:10298000D982EA82FB82C701B6019F77DF91CF919E
:10299000FF90EF90DF90CF90BF90AF909F908F907F
:1029A00008958F929F92AF92BF92CF92DF92EF9253
:1029B000FF92609112017091130180911401909126
:1029C0001501611571058105910521F464E279ED28
:1029D0008BE597E02DE133EF41E050E00E943F1599
:1029E00049015A019B01AC01A7EAB1E40E945E15BE
:1029F0006B017C01ACEEB4EFA50194010E946C1553
:102A0000C60ED71EE81EF91EF7FE06C081E0C81AE2
:102A1000D108E10880E8F80AC0921201D0921301AF
:102A2000E0921401F0921501C701B6019F77FF9063
:102A3000EF90DF90CF90BF90AF909F908F900895D0
:102A40006093120170931301809314019093150108
:102A50000895F999FECF92BD81BDF89A992780B566
:102A60000895262FF999FECF1FBA92BD81BD20BDD2
:102A70000FB6F894FA9AF99A0FBE01960895052EAA
:102A800097FB1EF400940E94561557FD07D00E9434
:102A9000711507FC03D04EF40C94561550954095D3
:102AA000309521953F4F4F4F5F4F089590958095FA
:102AB000709561957F4F8F4F9F4F08950E9493159A
:102AC000A59F900DB49F900DA49F800D911D112482
:102AD0000895B7FF0C945E150E945E15821B930B40
:102AE0000895A1E21A2EAA1BBB1BFD010DC0AA1F4F
:102AF000BB1FEE1FFF1FA217B307E407F50720F067
:102B0000A21BB30BE40BF50B661F771F881F991FE1
:102B10001A9469F760957095809590959B01AC012A
:102B2000BD01CF010895A29FB001B39FC001A39F33
:102B3000700D811D1124911DB29F700D811D1124F6
:102B4000911D0895991B79E004C0991F961708F00C
:102B5000961B881F7A95C9F780950895AA1BBB1B01
:102B600051E107C0AA1FBB1FA617B70710F0A61B8D
:102B7000B70B881F991F5A95A9F780959095BC01AE
:102B8000CD010895EE0FFF1F0590F491E02D0994FB
:042B9000F894FFCFE7
:102B9400108403071800FFFFFFFF00E1000000009E
:102BA40000000100000000C180810000000000005E
:102BB40000CF073A09F007E5073608F407120800C2
:0C2BC4000000002D0BBF09B30BB20B008A
:00000001FF
